:040000005BEF3BF087
:10767E00000E056E000E046E4BEF3BF0C80E00D0F0
:10768E00E82EFDD7044A052A0150045C0550800AF5
:10769E00036E0250800A0358D8A058EF3BF05AEF01
:1076AE003BF045EF3BF01200C40EF66E770EF76E10
:1076BE00000EF86E02EE00F010EE68F00900F5CF45
:1076CE00EEFFE550E150FAE1640EF66E770EF76EBE
:1076DE00000EF86E00EE80F010EE60F00900F5CFAF
:1076EE00EEFFE550E150FAE1376A366A356A346AE0
:1076FE0000011EEF3FF02DC023F02EC024F081ECD0
:10770E003CF023C032F024C033F0000E316E000E78
:10771E00306EA2EF3BF0829032C001F033C002F027
:10772E003FEC3BF0828032C001F033C002F03FEC00
:10773E003BF0304A312A2D50305C3150800A2F6E8A
:10774E002E50800A2F58D8A0AFEF3BF0B1EF3BF090
:10775E0092EF3BF01200050149018801B801ED01DD
:10776E00B80188014901050149018801B801D2011A
:10777E00B80188014901BA027003050125013701DC
:10778E00250149017003050149018801B801D201A3
:10779E00B801880149011003DB032501DB03BA029E
:1077AE00700305017003050149018801B801D2017A
:1077BE00B80188014901B801B801ED01B8012501F0
:1077CE001501B801B801ED01B80149012501B80153
:1077DE00B801B801710125011501ED01880188017B
:1077EE007101250149012501B801B801ED01B8016A
:1077FE0025011501B801B801ED01B80149012501B6
:10780E00B801B801B8017101250115012501150155
:10781E00ED01880188017101250149012501000E44
:10782E00116E000E126E000E136E000E146E09A075
:10783E0023EF3CF025EF3CF02DEF3CF00D501126E0
:10784E000E5012220F50132210501422D8900D36C3
:10785E000E360F361036D8900C320B320A320932F1
:10786E0009500A100B100C10D8A440EF3CF042EF58
:10787E003CF01EEF3CF011C009F012C00AF013C02C
:10788E000BF014C00CF0120034C009F035C00AF031
:10789E0036C00BF037C00CF02D0E0D6E7F0E0E6E37
:1078AE00950E0F6E4C0E106E16EC3CF0010E092468
:1078BE00346E000E0A20356E000E0B20366E000E52
:1078CE000C20376E34C017F035C018F036C019F0E2
:1078DE0037C01AF0120E79EF3CF0D8901A321932E6
:1078EE0018321732E82E74EF3CF017C015F018C09E
:1078FE0016F0120023C003F024C004F0000E026E36
:10790E00010E016ED2EC3CF001C02BF002C02CF047
:10791E00000E046E020E036E2BC001F02CC002F09E
:10792E00D2EC3CF001C009F002C00AF0000E0ABE13
:10793E00FF0E0B6E0C6E400E0D6E420E0E6E0F0E87
:10794E000F6E000E106E16EC3CF009C015F00AC05A
:10795E0016F00BC017F00CC018F0010E44EC3EF000
:10796E0015C025F016C026F017C027F018C028F055
:10797E0025C001F026C002F027C003F028C004F095
:10798E0034EC3DF001C029F002C02AF029C023F0EA
:10799E002AC024F01200000E066E04BEDBEF3CF08F
:1079AE00D9EF3CF0E1EF3CF0036C041ED8B0042A92
:1079BE00010E066E02BEE8EF3CF0E6EF3CF0EEEF95
:1079CE003CF0016C021ED8B0022A010E061A000EFF
:1079DE00086E000E076E03500410D8B4F9EF3CF099
:1079EE00FBEF3CF023EF3DF0010E056E03EF3DF093
:1079FE00D89003360436052A04AE08EF3DF00AEFA0
:107A0E003DF0FFEF3CF0D890073608360350015C8E
:107A1E0004500258D8A016EF3DF018EF3DF01DEFC0
:107A2E003DF00350015E0450025A0780D890043294
:107A3E000332052E0AEF3DF00650D8B429EF3DF083
:107A4E002BEF3DF02FEF3DF0076C081ED8B0082A43
:107A5E0007C001F008C002F01200033404340A6EAD
:107A6E000A50D8A43DEF3DF03FEF3DF049EF3DF019
:107A7E00000E016E000E026E000E036E000E046EFE
:107A8E00B6EF3DF001C005F002C006F003C007F0EE
:107A9E0004C008F0200E59EF3DF0D890083207329E
:107AAE0006320532E82E54EF3DF00550096E038E76
:107ABE00FF0E0116FF0E0216FF0E0316000E041621
:107ACE00960E0A5E0ABE70EF3DF06EEF3DF086EF49
:107ADE003DF00A50800A970FD8B078EF3DF07AEF5C
:107AEE003DF07CEF3DF03FEF3DF0D8900432033295
:107AFE00023201320A3E7CEF3DF09EEF3DF01F0E4A
:107B0E000A648CEF3DF08EEF3DF096EF3DF03FEFC7
:107B1E003DF0D89001360236033604360A060A5076
:107B2E00D8A49CEF3DF09EEF3DF090EF3DF0095054
:107B3E00D8B4A4EF3DF0A6EF3DF0AEEF3DF0041E3D
:107B4E00031E021E016C000E02220322042201C03B
:107B5E0001F002C002F003C003F004C004F01200F2
:107B6E004BEC3CF0010E1516000E1616010E1524E8
:107B7E000101CC6F000E1620CD6F22EE00F011EE3B
:107B8E0000F0670EDBCFE3FFE806FCE220EE80F0AC
:107B9E0011EE68F05F0EDBCFE3FFE806FCE2CC05EA
:107BAE00CD11D8A4DDEF3DF0DFEF3DF00CEF3EF050
:107BBE00000EC96F340EC86F000ECF6F000ECE6F61
:107BCE0001EF3EF0D890CE35D96ECF35DA6E000E7D
:107BDE00D926010EDA22DECF2DF0DDCF2EF082EC8B
:107BEE003BF0030E026EE80E016E3FEC3BF001011E
:107BFE00CE4BCF2BC851CE5DC951CF59D8A00AEF6D
:107C0E003EF00CEF3EF0E9EF3DF0020ECC19CD1137
:107C1E00D8A414EF3EF016EF3EF043EF3EF0000E08
:107C2E00CB6F300ECA6F000ED16F000ED06F38EFD3
:107C3E003EF0D890D035D96ED135DA6E680ED92691
:107C4E00010EDA22DECF2DF0DDCF2EF082EC3BF0EE
:107C5E00030E026EE80E016E3FEC3BF00101D04BBD
:107C6E00D12BCA51D05DCB51D159D8A041EF3EF0A6
:107C7E0043EF3EF020EF3EF012001D6E1D50D8B4C3
:107C8E004BEF3EF04DEF3EF06FEF3EF018BE54EF6F
:107C9E003EF052EF3EF06FEF3EF015C019F016C0F9
:107CAE001AF017C01BF018C01CF0191E1A1E1B1E4E
:107CBE001C1E192A000E1A221B221C2219C01FF08C
:107CCE001AC020F01BC021F01CC022F077EF3EF04E
:107CDE0015C01FF016C020F017C021F018C022F0FA
:107CEE001550161017101810D8A480EF3EF082EF22
:107CFE003EF08CEF3EF0000E156E000E166E000E6E
:107D0E00176E000E186E1DEF3FF0960E1E6E96EF5C
:107D1E003EF01E2AD8902232213220321F32000E1F
:107D2E001F14196E000E20141A6E000E21141B6EF5
:107D3E00FE0E22141C6E19501A101B101C10D8A403
:107D4E00ABEF3EF0ADEF3EF090EF3EF0BBEF3EF00E
:107D5E001E2A010E1F26000E202221222222D8903A
:107D6E002232213220321F32000E1F14196E000EE5
:107D7E0020141A6E000E21141B6EFF0E22141C6EA0
:107D8E0019501A101B101C10D8A4D0EF3EF0D2EFD1
:107D9E003EF0AFEF3EF0DAEF3EF01E06D8901F3603
:107DAE0020362136223621BEDFEF3EF0E1EF3EF0E7
:107DBE00E9EF3EF0020E1E60E7EF3EF0E9EF3EF017
:107DCE00D4EF3EF01EB0EEEF3EF0F0EF3EF0F1EFEE
:107DDE003EF0219ED8901E321EC019F01A6A1B6A00
:107DEE001C6A19C01CF01B6A1A6A196A19501F12F4
:107DFE001A5020121B5021121C5022121D50D8B4A2
:107E0E000BEF3FF00DEF3FF015EF3FF018BE14EF04
:107E1E003FF012EF3FF015EF3FF0228E1FC015F02E
:107E2E0020C016F021C017F022C018F01200926880
:107E3E009368949000F000F080B028EF3FF02AEFA6
:107E4E003FF030EF3FF0010E2E6E050E2D6E82ECE0
:107E5E003BF080B235EF3FF037EF3FF03DEF3FF0B4
:107E6E00010E2E6E150E2D6E82EC3BF080B442EF9D
:107E7E003FF044EF3FF04AEF3FF0010E2E6E250E1D
:107E8E002D6E82EC3BF080B64FEF3FF051EF3FF09E
:107E9E0057EF3FF0010E2E6E370E2D6E82EC3BF03B
:107EAE0080B85CEF3FF05EEF3FF064EF3FF0010E05
:107EBE002E6E490E2D6E82EC3BF080BA69EF3FF0CC
:107ECE006BEF3FF071EF3FF0010E2E6E5D0E2D6EDB
:107EDE0082EC3BF080BC76EF3FF078EF3FF07EEF28
:107EEE003FF0010E2E6E880E2D6E82EC3BF080BEA2
:107EFE0083EF3FF085EF3FF08BEF3FF0010E2E6EDC
:107F0E00B80E2D6E82EC3BF081B090EF3FF092EF09
:107F1E003FF098EF3FF0010E2E6EED0E2D6E82ECBF
:107F2E003BF081B29DEF3FF09FEF3FF0A5EF3FF0AA
:107F3E00020E2E6E0B0E2D6E82EC3BF081B4AAEF6C
:107F4E003FF0ACEF3FF0B2EF3FF0020E2E6E4B0E55
:107F5E002D6E82EC3BF081B6B7EF3FF0B9EF3FF0FC
:107F6E00BFEF3FF0020E2E6E930E2D6E82EC3BF0A5
:107F7E0081B8C4EF3FF0C6EF3FF0CCEF3FF0020EFA
:107F8E002E6EBA0E2D6E82EC3BF081BAD1EF3FF021
:107F9E00D3EF3FF0D9EF3FF0030E2E6E100E2D6E85
:107FAE0082EC3BF081ACDEEF3FF0E0EF3FF0E6EF2E
:107FBE003FF0030E2E6E700E2D6E82EC3BF081AEF6
:107FCE00EBEF3FF0EDEF3FF0F3EF3FF0030E2E6ED1
:107FDE00DB0E2D6E82EC3BF082A2F8EF3FF0FAEF53
:107FEE003FF021EF3FF0B7EC3DF021EF3FF000EF17
:027FFE0000F091
:020000040020DA
:08000000FFFFFFFFFFFFFFFF00
:020000040030CA
:0E000000FF06191EFF8185FF0FC00FE00F40A5
:00000001FF
