:0400000093EF3CF04E
:1079260000014DEF3EF0000E056E000E046EA2EF54
:107936003CF0C80E00D0E82EFDD7044A052A0150B7
:10794600045C0550800A036E0250800A0358D8A0D2
:10795600AFEF3CF0B1EF3CF09CEF3CF012002DC0D5
:1079660023F02EC024F017EC3DF023C032F024C0E3
:1079760033F0000E316E000E306ED2EF3CF0829086
:1079860032C001F033C002F096EC3CF0828032C087
:1079960001F033C002F096EC3CF0304A312A2D500B
:1079A600305C3150800A2F6E2E50800A2F58D8A096
:1079B600DFEF3CF0E1EF3CF0C2EF3CF01200000ECE
:1079C600116E000E126E000E136E000E146E09A0DC
:1079D600EFEF3CF0F1EF3CF0F9EF3CF00D501126E3
:1079E6000E5012220F50132210501422D8900D362A
:1079F6000E360F361036D8900C320B320A32093258
:107A060009500A100B100C10D8A40CEF3DF00EEF25
:107A16003DF0EAEF3CF011C009F012C00AF013C0C5
:107A26000BF014C00CF0120023C003F024C004F0C5
:107A3600000E026E010E016E68EC3DF001C02BF0E7
:107A460002C02CF0000E046E020E036E2BC001F075
:107A56002CC002F068EC3DF001C009F002C00AF04B
:107A6600000E0ABEFF0E0B6E0C6E400E0D6E420E21
:107A76000E6E0F0E0F6E000E106EE2EC3CF009C09B
:107A860015F00AC016F00BC017F00CC018F0010E66
:107A960026EC3FF015C025F016C026F017C027F0DB
:107AA60018C028F025C001F026C002F027C003F058
:107AB60028C004F0CAEC3DF001C029F002C02AF04B
:107AC60029C023F02AC024F01200000E066E04BE60
:107AD60071EF3DF06FEF3DF077EF3DF0036C041E64
:107AE600D8B0042A010E066E02BE7EEF3DF07CEF92
:107AF6003DF084EF3DF0016C021ED8B0022A010E63
:107B0600061A000E086E000E076E03500410D8B455
:107B16008FEF3DF091EF3DF0B9EF3DF0010E056EB0
:107B260099EF3DF0D89003360436052A04AE9EEF51
:107B36003DF0A0EF3DF095EF3DF0D89007360836C2
:107B46000350015C04500258D8A0ACEF3DF0AEEFF4
:107B56003DF0B3EF3DF00350015E0450025A07803A
:107B6600D89004320332052EA0EF3DF00650D8B46B
:107B7600BFEF3DF0C1EF3DF0C5EF3DF0076C081ECD
:107B8600D8B0082A07C001F008C002F0120003347A
:107B960004340A6E0A50D8A4D3EF3DF0D5EF3DF079
:107BA600DFEF3DF0000E016E000E026E000E036E5A
:107BB600000E046E4CEF3EF001C005F002C006F068
:107BC60003C007F004C008F0200EEFEF3DF0D89098
:107BD6000832073206320532E82EEAEF3DF005504C
:107BE600096E038EFF0E0116FF0E0216FF0E031618
:107BF600000E0416960E0A5E0ABE06EF3EF004EF6D
:107C06003EF01CEF3EF00A50800A970FD8B00EEFF8
:107C16003EF010EF3EF012EF3EF0D5EF3DF0D8907B
:107C260004320332023201320A3E12EF3EF034EFE2
:107C36003EF01F0E0A6422EF3EF024EF3EF02CEFDA
:107C46003EF0D5EF3DF0D8900136023603360436C5
:107C56000A060A50D8A432EF3EF034EF3EF026EF83
:107C66003EF00950D8B43AEF3EF03CEF3EF044EF18
:107C76003EF0041E031E021E016C000E02220322A9
:107C8600042201C001F002C002F003C003F004C0E8
:107C960004F0120092689368949000F000F080B0AF
:107CA60057EF3EF059EF3EF05FEF3EF0010E2E6EBD
:107CB600050E2D6EB2EC3CF080B264EF3EF066EF3E
:107CC6003EF06CEF3EF0010E2E6E150E2D6EB2ECF0
:107CD6003CF080B471EF3EF073EF3EF079EF3EF08A
:107CE600010E2E6E250E2D6EB2EC3CF080B67EEFA8
:107CF6003EF080EF3EF086EF3EF0010E2E6E370E20
:107D06002D6EB2EC3CF080B88BEF3EF08DEF3EF07E
:107D160093EF3EF0010E2E6E490E2D6EB2EC3CF046
:107D260080BA98EF3EF09AEF3EF0A0EF3EF0010EDB
:107D36002E6E5D0E2D6EB2EC3CF080BCA5EF3EF0D3
:107D4600A7EF3EF0ADEF3EF0010E2E6E880E2D6EC3
:107D5600B2EC3CF080BEB2EF3EF0B4EF3EF0BAEFCC
:107D66003EF0010E2E6EB80E2D6EB2EC3CF081B0D8
:107D7600BFEF3EF0C1EF3EF0C7EF3EF0010E2E6EB4
:107D8600ED0E2D6EB2EC3CF081B2CCEF3EF0CEEFB4
:107D96003EF0D4EF3EF0020E2E6E0B0E2D6EB2ECC0
:107DA6003CF081B4D9EF3EF0DBEF3EF0E1EF3EF080
:107DB600020E2E6E4B0E2D6EB2EC3CF081B6E6EF47
:107DC6003EF0E8EF3EF0EEEF3EF0020E2E6E930E22
:107DD6002D6EB2EC3CF081B8F3EF3EF0F5EF3EF0DD
:107DE600FBEF3EF0020E2E6EBA0E2D6EB2EC3CF09C
:107DF60081BA00EF3FF002EF3FF008EF3FF0030ECD
:107E06002E6E100E2D6EB2EC3CF081AC0DEF3FF0F5
:107E16000FEF3FF015EF3FF0030E2E6E700E2D6E36
:107E2600B2EC3CF081AE1AEF3FF01CEF3FF050EFA2
:107E36003EF0030E2E6EDB0E2D6EB2EC3CF050EFD4
:107E46003EF000EF00F01D6E1D50D8B42DEF3FF050
:107E56002FEF3FF051EF3FF018BE36EF3FF034EF13
:107E66003FF051EF3FF015C019F016C01AF017C0D9
:107E76001BF018C01CF0191E1A1E1B1E1C1E192AE8
:107E8600000E1A221B221C2219C01FF01AC020F055
:107E96001BC021F01CC022F059EF3FF015C01FF0A7
:107EA60016C020F017C021F018C022F01550161089
:107EB60017101810D8A462EF3FF064EF3FF06EEF92
:107EC6003FF0000E156E000E166E000E176E000EB9
:107ED600186EFFEF3FF0960E1E6E78EF3FF01E2AEB
:107EE600D8902232213220321F32000E1F14196E12
:107EF600000E20141A6E000E21141B6EFE0E2214A4
:107F06001C6E19501A101B101C10D8A48DEF3FF0D0
:107F16008FEF3FF072EF3FF09DEF3FF01E2A010E0C
:107F26001F26000E202221222222D8902232213220
:107F360020321F32000E1F14196E000E20141A6E06
:107F4600000E21141B6EFF0E22141C6E19501A10FF
:107F56001B101C10D8A4B2EF3FF0B4EF3FF091EF26
:107F66003FF0BCEF3FF01E06D8901F362036213674
:107F7600223621BEC1EF3FF0C3EF3FF0CBEF3FF01B
:107F8600020E1E60C9EF3FF0CBEF3FF0B6EF3FF0B9
:107F96001EB0D0EF3FF0D2EF3FF0D3EF3FF0219E7F
:107FA600D8901E321EC019F01A6A1B6A1C6A19C0C4
:107FB6001CF01B6A1A6A196A19501F121A502012ED
:107FC6001B5021121C5022121D50D8B4EDEF3FF069
:107FD600EFEF3FF0F7EF3FF018BEF6EF3FF0F4EFAC
:107FE6003FF0F7EF3FF0228E1FC015F020C016F0CD
:0A7FF60021C017F022C018F012009D
:020000040020DA
:08000000FFFFFFFFFFFFFFFF00
:020000040030CA
:0E000000FF06191EFF8185FF0FC00FE00F40A5
:00000001FF
