:0400000046EF3BF09C
:10765400000E056E000E046E36EF3BF0C80E00D02F
:10766400E82EFDD7044A052A0150045C0550800A1F
:10767400036E0250800A0358D8A043EF3BF045EF55
:107684003BF030EF3BF012009E0EF66E770EF76E75
:10769400000EF86E02EE00F010EE68F00900F5CF6F
:1076A400EEFFE550E150FAE13E0EF66E770EF76E0E
:1076B400000EF86E00EE80F010EE60F00900F5CFD9
:1076C400EEFFE550E150FAE100EE2CF00C0EEE6A0C
:1076D400E806FDE100010BEF3FF027C023F028C0CE
:1076E40024F06EEC3CF023C030F024C031F0000EE6
:1076F4002B6E000E2A6E8FEF3BF0829030C001F0AB
:1077040031C002F02AEC3BF0828030C001F031C07D
:1077140002F02AEC3BF02A4A2B2A27502A5C2B50F1
:10772400800A296E2850800A2958D8A09CEF3BF083
:107734009EEF3BF07FEF3BF0120005014901880109
:10774400B801ED01B8018801490105014901880129
:10775400B801D201B80188014901BA0270030501D8
:1077640025013701250149017003050149018801FB
:10777400B801D201B801880149011003DB032501D6
:10778400DB03BA0270030501700305014901880196
:10779400B801D201B80188014901B801B801ED016D
:1077A400B80125011501B801B801ED01B80149017D
:1077B4002501B801B801B801710125011501ED01D8
:1077C400880188017101250149012501B801B80129
:1077D400ED01B80125011501B801B801ED01B801A9
:1077E40049012501B801B801B8017101250115014C
:1077F40025011501ED018801880171012501490167
:107804002501000E116E000E126E000E136E000E96
:10781400146E09A010EF3CF012EF3CF01AEF3CF0AC
:107824000D5011260E5012220F5013221050142204
:10783400D8900D360E360F361036D8900C320B32E7
:107844000A32093209500A100B100C10D8A42DEF7B
:107854003CF02FEF3CF00BEF3CF011C009F012C0EC
:107864000AF013C00BF014C00CF0120034C009F07D
:1078740035C00AF036C00BF037C00CF02D0E0D6E7B
:107884007F0E0E6E950E0F6E4C0E106E03EC3CF0D8
:10789400010E0924346E000E0A20356E000E0B20F2
:1078A400366E000E0C20376E34C017F035C018F059
:1078B40036C019F037C01AF0120E66EF3CF0D890BB
:1078C4001A32193218321732E82E61EF3CF017C021
:1078D40015F018C016F0120023C003F024C004F001
:1078E400000E026E010E016EBFEC3CF001C025F0EB
:1078F40002C026F0000E046E020E036E25C001F0D5
:1079040026C002F0BFEC3CF001C009F002C00AF04E
:10791400000E0ABEFF0E0B6E0C6E400E0D6E420E74
:107924000E6E0F0E0F6E000E106E03EC3CF009C0CD
:1079340015F00AC016F00BC017F00CC018F0010EB9
:1079440031EC3EF015C02CF016C02DF017C02EF00F
:1079540018C02FF02CC001F02DC002F02EC003F08F
:107964002FC004F021EC3DF001C032F002C033F02E
:1079740032C023F033C024F01200000E066E04BEA1
:10798400C8EF3CF0C6EF3CF0CEEF3CF0036C041EB5
:10799400D8B0042A010E066E02BED5EF3CF0D3EF38
:1079A4003CF0DBEF3CF0016C021ED8B0022A010E61
:1079B400061A000E086E000E076E03500410D8B4A9
:1079C400E6EF3CF0E8EF3CF010EF3DF0010E056E01
:1079D400F0EF3CF0D89003360436052A04AEF5EFF8
:1079E4003CF0F7EF3CF0ECEF3CF0D890073608366B
:1079F4000350015C04500258D8A003EF3DF005EF9A
:107A04003DF00AEF3DF00350015E0450025A078036
:107A1400D89004320332052EF7EF3CF00650D8B468
:107A240016EF3DF018EF3DF01CEF3DF0076C081E1B
:107A3400D8B0082A07C001F008C002F012000334CD
:107A440004340A6E0A50D8A42AEF3DF02CEF3DF01E
:107A540036EF3DF0000E016E000E026E000E036E56
:107A6400000E046EA3EF3DF001C005F002C006F065
:107A740003C007F004C008F0200E46EF3DF0D89094
:107A84000832073206320532E82E41EF3DF0055048
:107A9400096E038EFF0E0116FF0E0216FF0E03166B
:107AA400000E0416960E0A5E0ABE5DEF3DF05BEF13
:107AB4003DF073EF3DF00A50800A970FD8B065EFA0
:107AC4003DF067EF3DF069EF3DF02CEF3DF0D890CD
:107AD40004320332023201320A3E69EF3DF08BEF89
:107AE4003DF01F0E0A6479EF3DF07BEF3DF083EF2C
:107AF4003DF02CEF3DF0D8900136023603360436C3
:107B04000A060A50D8A489EF3DF08BEF3DF07DEFD3
:107B14003DF00950D8B491EF3DF093EF3DF09BEF69
:107B24003DF0041E031E021E016C000E02220322FD
:107B3400042201C001F002C002F003C003F004C03B
:107B440004F0120038EC3CF0010E1516000E161667
:107B5400010E15240101CC6F000E1620CD6F22EE0C
:107B640000F011EE00F0670EDBCFE3FFE806FCE265
:107B740020EE80F011EE68F05F0EDBCFE3FFE80645
:107B8400FCE2CC05CD11D8A4CAEF3DF0CCEF3DF01A
:107B9400F9EF3DF0000EC96F340EC86F000ECF6FC1
:107BA400000ECE6FEEEF3DF0D890CE35D96ECF35C6
:107BB400DA6E000ED926010EDA22DECF27F0DDCFF1
:107BC40028F06FEC3BF0030E026EE80E016E2AEC17
:107BD4003BF00101CE4BCF2BC851CE5DC951CF59DB
:107BE400D8A0F7EF3DF0F9EF3DF0D6EF3DF0020EEF
:107BF400CC19CD11D8A401EF3EF003EF3EF030EFE5
:107C04003EF0000ECB6F300ECA6F000ED16F000E27
:107C1400D06F25EF3EF0D890D035D96ED135DA6EDD
:107C2400680ED926010EDA22DECF27F0DDCF28F048
:107C34006FEC3BF0030E026EE80E016E2AEC3BF093
:107C44000101D04BD12BCA51D05DCB51D159D8A011
:107C54002EEF3EF030EF3EF00DEF3EF012001D6EC1
:107C64001D50D8B438EF3EF03AEF3EF05CEF3EF0F2
:107C740018BE41EF3EF03FEF3EF05CEF3EF015C022
:107C840019F016C01AF017C01BF018C01CF0191E0A
:107C94001A1E1B1E1C1E192A000E1A221B221C222D
:107CA40019C01FF01AC020F01BC021F01CC022F024
:107CB40064EF3EF015C01FF016C020F017C021F08D
:107CC40018C022F01550161017101810D8A46DEF14
:107CD4003EF06FEF3EF079EF3EF0000E156E000EB1
:107CE400166E000E176E000E186E0AEF3FF0960E19
:107CF4001E6E83EF3EF01E2AD890223221322032AB
:107D04001F32000E1F14196E000E20141A6E000E7E
:107D140021141B6EFE0E22141C6E19501A101B1017
:107D24001C10D8A498EF3EF09AEF3EF07DEF3EF0A1
:107D3400A8EF3EF01E2A010E1F26000E202221224B
:107D44002222D8902232213220321F32000E1F14F8
:107D5400196E000E20141A6E000E21141B6EFF0EF5
:107D640022141C6E19501A101B101C10D8A4BDEF3D
:107D74003EF0BFEF3EF09CEF3EF0C7EF3EF01E0634
:107D8400D8901F3620362136223621BECCEF3EF065
:107D9400CEEF3EF0D6EF3EF0020E1E60D4EF3EF082
:107DA400D6EF3EF0C1EF3EF01EB0DBEF3EF0DDEF6C
:107DB4003EF0DEEF3EF0219ED8901E321EC019F038
:107DC4001A6A1B6A1C6A19C01CF01B6A1A6A196AAF
:107DD40019501F121A5020121B5021121C5022122B
:107DE4001D50D8B4F8EF3EF0FAEF3EF002EF3FF04A
:107DF40018BE01EF3FF0FFEF3EF002EF3FF0228E9E
:107E04001FC015F020C016F021C017F022C018F0D2
:107E1400120092689368949000F000F080B015EF1F
:107E24003FF017EF3FF01EEF3FF0010E286E050EF6
:107E3400276E6FEC3BF000F080B223EF3FF025EFAC
:107E44003FF02CEF3FF0010E286E150E276E6FECFD
:107E54003BF000F080B431EF3FF033EF3FF03AEF06
:107E64003FF0010E286E250E276E6FEC3BF000F0FC
:107E740080B63FEF3FF041EF3FF048EF3FF0010E97
:107E8400286E370E276E6FEC3BF000F080B84DEF94
:107E94003FF04FEF3FF056EF3FF0010E286E490ED2
:107EA400276E6FEC3BF000F080BA5BEF3FF05DEFC4
:107EB4003FF064EF3FF0010E286E5D0E276E6FEC0D
:107EC4003BF000F080BC69EF3FF06BEF3FF072EFE6
:107ED4003FF0010E286E880E276E6FEC3BF000F029
:107EE40080BE77EF3FF079EF3FF080EF3FF0010E77
:107EF400286EB80E276E6FEC3BF000F081B085EF72
:107F04003FF087EF3FF08EEF3FF0010E286EED0E4D
:107F1400276E6FEC3BF000F081B293EF3FF095EFEA
:107F24003FF09CEF3FF0020E286E0B0E276E6FECB5
:107F34003BF000F081B4A1EF3FF0A3EF3FF0AAEFD4
:107F44003FF0020E286E4B0E276E6FEC3BF000F0F4
:107F540081B6AFEF3FF0B1EF3FF0B8EF3FF0020E64
:107F6400286E930E276E6FEC3BF000F081B8BDEFE6
:107F74003FF0BFEF3FF0C6EF3FF0020E286EBA0E9F
:107F8400276E6FEC3BF000F081BACBEF3FF0CDEF02
:107F94003FF0D4EF3FF0030E286E100E276E6FEC07
:107FA4003BF000F081BCD9EF3FF0DBEF3FF0E2EFB4
:107FB4003FF0030E286E700E276E6FEC3BF000F05E
:107FC40081BEE7EF3FF0E9EF3FF0F0EF3FF0030E43
:107FD400286EDB0E276E6FEC3BF000F082B2F5EFFB
:107FE4003FF0F7EF3FF0FAEF3FF0A4EC3DF000F084
:0C7FF40000F000F00EEF3FF000EF00F096
:020000040020DA
:08000000FFFFFFFFFFFFFFFF00
:020000040030CA
:0E000000FF06191EFF8185FF0FC00FE00F40A5
:00000001FF
